{
  "contractName": "BountyApp",
  "abi": [
    {
      "constant": true,
      "inputs": [],
      "name": "entryCount",
      "outputs": [
        {
          "name": "",
          "type": "uint256"
        }
      ],
      "payable": false,
      "stateMutability": "view",
      "type": "function"
    },
    {
      "constant": true,
      "inputs": [],
      "name": "bountyCount",
      "outputs": [
        {
          "name": "",
          "type": "uint256"
        }
      ],
      "payable": false,
      "stateMutability": "view",
      "type": "function"
    },
    {
      "constant": false,
      "inputs": [],
      "name": "renounceOwnership",
      "outputs": [],
      "payable": false,
      "stateMutability": "nonpayable",
      "type": "function"
    },
    {
      "constant": true,
      "inputs": [],
      "name": "owner",
      "outputs": [
        {
          "name": "",
          "type": "address"
        }
      ],
      "payable": false,
      "stateMutability": "view",
      "type": "function"
    },
    {
      "constant": true,
      "inputs": [],
      "name": "isOwner",
      "outputs": [
        {
          "name": "",
          "type": "bool"
        }
      ],
      "payable": false,
      "stateMutability": "view",
      "type": "function"
    },
    {
      "constant": false,
      "inputs": [
        {
          "name": "newOwner",
          "type": "address"
        }
      ],
      "name": "transferOwnership",
      "outputs": [],
      "payable": false,
      "stateMutability": "nonpayable",
      "type": "function"
    },
    {
      "payable": true,
      "stateMutability": "payable",
      "type": "fallback"
    },
    {
      "anonymous": false,
      "inputs": [
        {
          "indexed": true,
          "name": "bountyOwner",
          "type": "address"
        },
        {
          "indexed": false,
          "name": "amount",
          "type": "uint256"
        }
      ],
      "name": "TokensDeposited",
      "type": "event"
    },
    {
      "anonymous": false,
      "inputs": [
        {
          "indexed": true,
          "name": "bountyOwner",
          "type": "address"
        },
        {
          "indexed": false,
          "name": "bountyID",
          "type": "uint256"
        }
      ],
      "name": "BountyAdded",
      "type": "event"
    },
    {
      "anonymous": false,
      "inputs": [
        {
          "indexed": true,
          "name": "entryOwner",
          "type": "address"
        },
        {
          "indexed": false,
          "name": "entryID",
          "type": "uint256"
        }
      ],
      "name": "BountyEntryAdded",
      "type": "event"
    },
    {
      "anonymous": false,
      "inputs": [
        {
          "indexed": false,
          "name": "entryID",
          "type": "uint256"
        }
      ],
      "name": "BountyEntryApproved",
      "type": "event"
    },
    {
      "anonymous": false,
      "inputs": [
        {
          "indexed": false,
          "name": "entryID",
          "type": "uint256"
        }
      ],
      "name": "BountyEntryPaid",
      "type": "event"
    },
    {
      "anonymous": false,
      "inputs": [
        {
          "indexed": false,
          "name": "bountyID",
          "type": "uint256"
        }
      ],
      "name": "BountyAdded",
      "type": "event"
    },
    {
      "anonymous": false,
      "inputs": [
        {
          "indexed": false,
          "name": "bountyID",
          "type": "uint256"
        }
      ],
      "name": "BountyCompleted",
      "type": "event"
    },
    {
      "anonymous": false,
      "inputs": [
        {
          "indexed": true,
          "name": "previousOwner",
          "type": "address"
        },
        {
          "indexed": true,
          "name": "newOwner",
          "type": "address"
        }
      ],
      "name": "OwnershipTransferred",
      "type": "event"
    },
    {
      "constant": false,
      "inputs": [
        {
          "name": "_name",
          "type": "string"
        },
        {
          "name": "_description",
          "type": "string"
        },
        {
          "name": "_token",
          "type": "address"
        },
        {
          "name": "_payout",
          "type": "uint256"
        }
      ],
      "name": "addBounty",
      "outputs": [],
      "payable": false,
      "stateMutability": "nonpayable",
      "type": "function"
    },
    {
      "constant": false,
      "inputs": [
        {
          "name": "_bountyID",
          "type": "uint256"
        },
        {
          "name": "_documentHash",
          "type": "string"
        }
      ],
      "name": "addBountyEntry",
      "outputs": [],
      "payable": false,
      "stateMutability": "nonpayable",
      "type": "function"
    },
    {
      "constant": false,
      "inputs": [
        {
          "name": "_entryID",
          "type": "uint256"
        }
      ],
      "name": "approveBountyEntry",
      "outputs": [],
      "payable": false,
      "stateMutability": "nonpayable",
      "type": "function"
    },
    {
      "constant": false,
      "inputs": [
        {
          "name": "_entryID",
          "type": "uint256"
        }
      ],
      "name": "withdrawBountyPayout",
      "outputs": [],
      "payable": false,
      "stateMutability": "nonpayable",
      "type": "function"
    },
    {
      "constant": true,
      "inputs": [
        {
          "name": "_bountyID",
          "type": "uint256"
        }
      ],
      "name": "getBounty",
      "outputs": [
        {
          "name": "",
          "type": "address"
        },
        {
          "name": "",
          "type": "string"
        },
        {
          "name": "",
          "type": "string"
        },
        {
          "name": "",
          "type": "address"
        },
        {
          "name": "",
          "type": "uint256"
        },
        {
          "name": "",
          "type": "uint8"
        }
      ],
      "payable": false,
      "stateMutability": "view",
      "type": "function"
    },
    {
      "constant": true,
      "inputs": [
        {
          "name": "_address",
          "type": "address"
        }
      ],
      "name": "getBountyByAddress",
      "outputs": [
        {
          "name": "",
          "type": "uint256[]"
        }
      ],
      "payable": false,
      "stateMutability": "view",
      "type": "function"
    },
    {
      "constant": true,
      "inputs": [
        {
          "name": "_entryID",
          "type": "uint256"
        }
      ],
      "name": "getEntry",
      "outputs": [
        {
          "name": "",
          "type": "address"
        },
        {
          "name": "",
          "type": "uint256"
        },
        {
          "name": "",
          "type": "string"
        },
        {
          "name": "",
          "type": "uint8"
        }
      ],
      "payable": false,
      "stateMutability": "view",
      "type": "function"
    },
    {
      "constant": true,
      "inputs": [
        {
          "name": "_address",
          "type": "address"
        }
      ],
      "name": "getBountyEntryByAddress",
      "outputs": [
        {
          "name": "",
          "type": "uint256[]"
        }
      ],
      "payable": false,
      "stateMutability": "view",
      "type": "function"
    }
  ],
  "bytecode": "0x6080604052336000806101000a81548173ffffffffffffffffffffffffffffffffffffffff021916908373ffffffffffffffffffffffffffffffffffffffff1602179055506000809054906101000a900473ffffffffffffffffffffffffffffffffffffffff1673ffffffffffffffffffffffffffffffffffffffff16600073ffffffffffffffffffffffffffffffffffffffff167f8be0079c531659141344cd1fd0a4f28419497f9722a3daafe3b4186f6b6457e060405160405180910390a3611d19806100cf6000396000f3006080604052600436106100d0576000357c0100000000000000000000000000000000000000000000000000000000900463ffffffff1680630cbb0f83146100d55780633e362c9614610100578063715018a61461012b5780637d34d87c14610142578063810596201461016f5780638508a24c1461020757806388df391c146102e05780638da5cb5b1461030d5780638f32d59b14610364578063bae78d7b14610393578063d56b022f14610488578063dc46bd3c14610520578063ee8c4bbf14610593578063f2fde38b14610727575b600080fd5b3480156100e157600080fd5b506100ea61076a565b6040518082815260200191505060405180910390f35b34801561010c57600080fd5b50610115610770565b6040518082815260200191505060405180910390f35b34801561013757600080fd5b50610140610776565b005b34801561014e57600080fd5b5061016d60048036038101908080359060200190929190505050610848565b005b34801561017b57600080fd5b506101b0600480360381019080803573ffffffffffffffffffffffffffffffffffffffff169060200190929190505050610ae1565b6040518080602001828103825283818151815260200191508051906020019060200280838360005b838110156101f35780820151818401526020810190506101d8565b505050509050019250505060405180910390f35b34801561021357600080fd5b506102de600480360381019080803590602001908201803590602001908080601f0160208091040260200160405190810160405280939291908181526020018383808284378201915050505050509192919290803590602001908201803590602001908080601f0160208091040260200160405190810160405280939291908181526020018383808284378201915050505050509192919290803573ffffffffffffffffffffffffffffffffffffffff16906020019092919080359060200190929190505050610b78565b005b3480156102ec57600080fd5b5061030b60048036038101908080359060200190929190505050610fc3565b005b34801561031957600080fd5b5061032261125d565b604051808273ffffffffffffffffffffffffffffffffffffffff1673ffffffffffffffffffffffffffffffffffffffff16815260200191505060405180910390f35b34801561037057600080fd5b50610379611286565b604051808215151515815260200191505060405180910390f35b34801561039f57600080fd5b506103be600480360381019080803590602001909291905050506112dd565b604051808573ffffffffffffffffffffffffffffffffffffffff1673ffffffffffffffffffffffffffffffffffffffff1681526020018481526020018060200183600281111561040a57fe5b60ff168152602001828103825284818151815260200191508051906020019080838360005b8381101561044a57808201518184015260208101905061042f565b50505050905090810190601f1680156104775780820380516001836020036101000a031916815260200191505b509550505050505060405180910390f35b34801561049457600080fd5b506104c9600480360381019080803573ffffffffffffffffffffffffffffffffffffffff169060200190929190505050611417565b6040518080602001828103825283818151815260200191508051906020019060200280838360005b8381101561050c5780820151818401526020810190506104f1565b505050509050019250505060405180910390f35b34801561052c57600080fd5b5061059160048036038101908080359060200190929190803590602001908201803590602001908080601f01602080910402602001604051908101604052809392919081815260200183838082843782019150505050505091929192905050506114ae565b005b34801561059f57600080fd5b506105be600480360381019080803590602001909291905050506116f2565b604051808773ffffffffffffffffffffffffffffffffffffffff1673ffffffffffffffffffffffffffffffffffffffff16815260200180602001806020018673ffffffffffffffffffffffffffffffffffffffff1673ffffffffffffffffffffffffffffffffffffffff16815260200185815260200184600181111561064057fe5b60ff168152602001838103835288818151815260200191508051906020019080838360005b83811015610680578082015181840152602081019050610665565b50505050905090810190601f1680156106ad5780820380516001836020036101000a031916815260200191505b50838103825287818151815260200191508051906020019080838360005b838110156106e65780820151818401526020810190506106cb565b50505050905090810190601f1680156107135780820380516001836020036101000a031916815260200191505b509850505050505050505060405180910390f35b34801561073357600080fd5b50610768600480360381019080803573ffffffffffffffffffffffffffffffffffffffff16906020019092919050505061191e565b005b60025481565b60015481565b61077e611286565b151561078957600080fd5b600073ffffffffffffffffffffffffffffffffffffffff166000809054906101000a900473ffffffffffffffffffffffffffffffffffffffff1673ffffffffffffffffffffffffffffffffffffffff167f8be0079c531659141344cd1fd0a4f28419497f9722a3daafe3b4186f6b6457e060405160405180910390a360008060006101000a81548173ffffffffffffffffffffffffffffffffffffffff021916908373ffffffffffffffffffffffffffffffffffffffff160217905550565b60008082600073ffffffffffffffffffffffffffffffffffffffff166005600083815260200190815260200160002060000160009054906101000a900473ffffffffffffffffffffffffffffffffffffffff1673ffffffffffffffffffffffffffffffffffffffff16141515156108be57600080fd5b60056000858152602001908152602001600020600101546001808111156108e157fe5b6003600083815260200190815260200160002060050160009054906101000a900460ff16600181111561091057fe5b14151561091c57600080fd5b846005600082815260200190815260200160002060000160009054906101000a900473ffffffffffffffffffffffffffffffffffffffff1673ffffffffffffffffffffffffffffffffffffffff163373ffffffffffffffffffffffffffffffffffffffff1614151561098d57600080fd5b856001600281111561099b57fe5b6005600083815260200190815260200160002060030160009054906101000a900460ff1660028111156109ca57fe5b1415156109d657600080fd5b6005600088815260200190815260200160002095506003600087600101548152602001908152602001600020945060028660030160006101000a81548160ff02191690836002811115610a2557fe5b0217905550610aa18660000160009054906101000a900473ffffffffffffffffffffffffffffffffffffffff1686600401548760030160009054906101000a900473ffffffffffffffffffffffffffffffffffffffff1673ffffffffffffffffffffffffffffffffffffffff1661193d9092919063ffffffff16565b7f0f8cdfc2f91be5c63e15dde45180d86c6b36570012794792476e1aa440dd0f41876040518082815260200191505060405180910390a150505050505050565b6060600460008373ffffffffffffffffffffffffffffffffffffffff1673ffffffffffffffffffffffffffffffffffffffff168152602001908152602001600020805480602002602001604051908101604052809291908181526020018280548015610b6c57602002820191906000526020600020905b815481526020019060010190808311610b58575b50505050509050919050565b6000818373ffffffffffffffffffffffffffffffffffffffff166370a08231336040518263ffffffff167c0100000000000000000000000000000000000000000000000000000000028152600401808273ffffffffffffffffffffffffffffffffffffffff1673ffffffffffffffffffffffffffffffffffffffff168152602001915050602060405180830381600087803b158015610c1657600080fd5b505af1158015610c2a573d6000803e3d6000fd5b505050506040513d6020811015610c4057600080fd5b810190808051906020019092919050505010151515610c5e57600080fd5b818373ffffffffffffffffffffffffffffffffffffffff1663dd62ed3e33306040518363ffffffff167c0100000000000000000000000000000000000000000000000000000000028152600401808373ffffffffffffffffffffffffffffffffffffffff1673ffffffffffffffffffffffffffffffffffffffff1681526020018273ffffffffffffffffffffffffffffffffffffffff1673ffffffffffffffffffffffffffffffffffffffff16815260200192505050602060405180830381600087803b158015610d2e57600080fd5b505af1158015610d42573d6000803e3d6000fd5b505050506040513d6020811015610d5857600080fd5b810190808051906020019092919050505010151515610d7657600080fd5b610da33330848673ffffffffffffffffffffffffffffffffffffffff16611a2b909392919063ffffffff16565b3373ffffffffffffffffffffffffffffffffffffffff167f59062170a285eb80e8c6b8ced60428442a51910635005233fc4ce084a475845e836040518082815260200191505060405180910390a26003600060015481526020019081526020016000209050338160000160006101000a81548173ffffffffffffffffffffffffffffffffffffffff021916908373ffffffffffffffffffffffffffffffffffffffff16021790555084816001019080519060200190610e63929190611c48565b5083816002019080519060200190610e7c929190611c48565b50828160030160006101000a81548173ffffffffffffffffffffffffffffffffffffffff021916908373ffffffffffffffffffffffffffffffffffffffff16021790555081816004018190555060008160050160006101000a81548160ff02191690836001811115610eea57fe5b0217905550600460003373ffffffffffffffffffffffffffffffffffffffff1673ffffffffffffffffffffffffffffffffffffffff16815260200190815260200160002060015490806001815401808255809150509060018203906000526020600020016000909192909190915055503373ffffffffffffffffffffffffffffffffffffffff167fbb7d80264858cda07e4437c9626c74dc728d62f1369a77dcbab476527dff19836001546040518082815260200191505060405180910390a26001600081548092919060010191905055505050505050565b60008082600073ffffffffffffffffffffffffffffffffffffffff166005600083815260200190815260200160002060000160009054906101000a900473ffffffffffffffffffffffffffffffffffffffff1673ffffffffffffffffffffffffffffffffffffffff161415151561103957600080fd5b60056000858152602001908152602001600020600101546000600181111561105d57fe5b6003600083815260200190815260200160002060050160009054906101000a900460ff16600181111561108c57fe5b14151561109857600080fd5b60056000868152602001908152602001600020600101546003600082815260200190815260200160002060000160009054906101000a900473ffffffffffffffffffffffffffffffffffffffff1673ffffffffffffffffffffffffffffffffffffffff163373ffffffffffffffffffffffffffffffffffffffff1614151561111f57600080fd5b856000600281111561112d57fe5b6005600083815260200190815260200160002060030160009054906101000a900460ff16600281111561115c57fe5b14151561116857600080fd5b6005600088815260200190815260200160002095506003600087600101548152602001908152602001600020945060018660030160006101000a81548160ff021916908360028111156111b757fe5b02179055507f096b8f5fba4f55634797a43ff22978f8a174f72d27e881eecbb057c5907bdb45876040518082815260200191505060405180910390a160018560050160006101000a81548160ff0219169083600181111561121457fe5b02179055507f687045981c43db01605c41aa9dbf9296e20e6848624353e83979327e96434ccc86600101546040518082815260200191505060405180910390a150505050505050565b60008060009054906101000a900473ffffffffffffffffffffffffffffffffffffffff16905090565b60008060009054906101000a900473ffffffffffffffffffffffffffffffffffffffff1673ffffffffffffffffffffffffffffffffffffffff163373ffffffffffffffffffffffffffffffffffffffff1614905090565b600080606060006005600086815260200190815260200160002060000160009054906101000a900473ffffffffffffffffffffffffffffffffffffffff166005600087815260200190815260200160002060010154600560008881526020019081526020016000206002016005600089815260200190815260200160002060030160009054906101000a900460ff16818054600181600116156101000203166002900480601f0160208091040260200160405190810160405280929190818152602001828054600181600116156101000203166002900480156114015780601f106113d657610100808354040283529160200191611401565b820191906000526020600020905b8154815290600101906020018083116113e457829003601f168201915b5050505050915093509350935093509193509193565b6060600660008373ffffffffffffffffffffffffffffffffffffffff1673ffffffffffffffffffffffffffffffffffffffff1681526020019081526020016000208054806020026020016040519081016040528092919081815260200182805480156114a257602002820191906000526020600020905b81548152602001906001019080831161148e575b50505050509050919050565b600082600073ffffffffffffffffffffffffffffffffffffffff166003600083815260200190815260200160002060000160009054906101000a900473ffffffffffffffffffffffffffffffffffffffff1673ffffffffffffffffffffffffffffffffffffffff161415151561152357600080fd5b836000600181111561153157fe5b6003600083815260200190815260200160002060050160009054906101000a900460ff16600181111561156057fe5b14151561156c57600080fd5b6000845111151561157c57600080fd5b6005600060025481526020019081526020016000209250338360000160006101000a81548173ffffffffffffffffffffffffffffffffffffffff021916908373ffffffffffffffffffffffffffffffffffffffff160217905550848360010181905550838360020190805190602001906115f7929190611c48565b5060008360030160006101000a81548160ff0219169083600281111561161957fe5b0217905550600660003373ffffffffffffffffffffffffffffffffffffffff1673ffffffffffffffffffffffffffffffffffffffff16815260200190815260200160002060025490806001815401808255809150509060018203906000526020600020016000909192909190915055503373ffffffffffffffffffffffffffffffffffffffff167f220aa9936ee935d35192fcc6795a27b1704afc3be0a3eda7512996ba08b24a286002546040518082815260200191505060405180910390a26002600081548092919060010191905055505050505050565b600060608060008060006003600088815260200190815260200160002060000160009054906101000a900473ffffffffffffffffffffffffffffffffffffffff1660036000898152602001908152602001600020600101600360008a8152602001908152602001600020600201600360008b815260200190815260200160002060030160009054906101000a900473ffffffffffffffffffffffffffffffffffffffff16600360008c815260200190815260200160002060040154600360008d815260200190815260200160002060050160009054906101000a900460ff16848054600181600116156101000203166002900480601f0160208091040260200160405190810160405280929190818152602001828054600181600116156101000203166002900480156118665780601f1061183b57610100808354040283529160200191611866565b820191906000526020600020905b81548152906001019060200180831161184957829003601f168201915b50505050509450838054600181600116156101000203166002900480601f0160208091040260200160405190810160405280929190818152602001828054600181600116156101000203166002900480156119025780601f106118d757610100808354040283529160200191611902565b820191906000526020600020905b8154815290600101906020018083116118e557829003601f168201915b5050505050935095509550955095509550955091939550919395565b611926611286565b151561193157600080fd5b61193a81611b4e565b50565b8273ffffffffffffffffffffffffffffffffffffffff1663a9059cbb83836040518363ffffffff167c0100000000000000000000000000000000000000000000000000000000028152600401808373ffffffffffffffffffffffffffffffffffffffff1673ffffffffffffffffffffffffffffffffffffffff16815260200182815260200192505050602060405180830381600087803b1580156119e057600080fd5b505af11580156119f4573d6000803e3d6000fd5b505050506040513d6020811015611a0a57600080fd5b81019080805190602001909291905050501515611a2657600080fd5b505050565b8373ffffffffffffffffffffffffffffffffffffffff166323b872dd8484846040518463ffffffff167c0100000000000000000000000000000000000000000000000000000000028152600401808473ffffffffffffffffffffffffffffffffffffffff1673ffffffffffffffffffffffffffffffffffffffff1681526020018373ffffffffffffffffffffffffffffffffffffffff1673ffffffffffffffffffffffffffffffffffffffff1681526020018281526020019350505050602060405180830381600087803b158015611b0257600080fd5b505af1158015611b16573d6000803e3d6000fd5b505050506040513d6020811015611b2c57600080fd5b81019080805190602001909291905050501515611b4857600080fd5b50505050565b600073ffffffffffffffffffffffffffffffffffffffff168173ffffffffffffffffffffffffffffffffffffffff1614151515611b8a57600080fd5b8073ffffffffffffffffffffffffffffffffffffffff166000809054906101000a900473ffffffffffffffffffffffffffffffffffffffff1673ffffffffffffffffffffffffffffffffffffffff167f8be0079c531659141344cd1fd0a4f28419497f9722a3daafe3b4186f6b6457e060405160405180910390a3806000806101000a81548173ffffffffffffffffffffffffffffffffffffffff021916908373ffffffffffffffffffffffffffffffffffffffff16021790555050565b828054600181600116156101000203166002900490600052602060002090601f016020900481019282601f10611c8957805160ff1916838001178555611cb7565b82800160010185558215611cb7579182015b82811115611cb6578251825591602001919060010190611c9b565b5b509050611cc49190611cc8565b5090565b611cea91905b80821115611ce6576000816000905550600101611cce565b5090565b905600a165627a7a72305820dc067dd6d8782b50e86f253833a5c189eb469e747756d711a69365f639821c7d0029",
  "source": "pragma solidity ^0.4.24;\r\n\r\nimport \"./Ownable.sol\";\r\nimport \"./SafeMath.sol\";\r\nimport \"./IERC20.sol\";\r\nimport \"./SafeERC20.sol\";\r\n\r\ncontract BountyApp is Ownable {\r\n\tusing SafeMath for uint256;\r\n\tusing SafeERC20 for IERC20;\r\n\r\n\tuint256 public bountyCount;\r\n\tuint256 public entryCount;\r\n\tmapping (uint256 => Bounty) private bountyList;\r\n\tmapping (address => uint256[]) private userBounty;\r\n\tmapping (uint256 => BountyEntry) private entryList;\r\n\tmapping (address => uint256[]) private userEntry; \r\n\r\n\tenum BountyStatus { Ongoing, Completed }\r\n\tenum BountyEntryStatus { Pending, Approved, Paid }\r\n\r\n\tstruct Bounty {\r\n\t\taddress bountyOwner;\r\n\t\tstring name;\r\n\t\tstring description;\r\n\t\tIERC20 token;\r\n\t\tuint256 payout;\r\n\t\tBountyStatus status;\r\n\t}\r\n\r\n\tstruct BountyEntry {\r\n\t\taddress entryUser;\r\n\t\tuint256 bountyID;\r\n\t\tstring documentHash;\r\n\t\tBountyEntryStatus status;\r\n\t}\r\n\r\n\tevent TokensDeposited(address indexed bountyOwner, uint256 amount);\r\n\tevent BountyAdded(address indexed bountyOwner, uint256 bountyID);\r\n\tevent BountyEntryAdded(address indexed entryOwner, uint256 entryID);\r\n\tevent BountyEntryApproved(uint256 entryID);\r\n\tevent BountyEntryPaid(uint256 entryID);\r\n\tevent BountyAdded(uint256 bountyID);\r\n\tevent BountyCompleted(uint256 bountyID);\r\n\r\n\tfunction() public payable {\r\n\t\trevert();\r\n\t}\r\n\r\n\tmodifier validBounty(uint256 _bountyID) {\r\n        require(bountyList[_bountyID].bountyOwner != address(0));\r\n        _;\r\n    }\r\n\r\n    modifier validEntry(uint256 _entryID) {\r\n        require(entryList[_entryID].entryUser != address(0));\r\n        _;\r\n    }\r\n\r\n\tmodifier onlyBountyOwner(uint256 _bountyID) {\r\n        require(msg.sender == bountyList[_bountyID].bountyOwner);\r\n        _;\r\n    }\r\n\r\n    modifier onlyEntryOwner(uint256 _entryID) {\r\n        require(msg.sender == entryList[_entryID].entryUser);\r\n        _;\r\n    }\r\n\r\n    modifier onlyEntryPending( uint256 _entryID) {\r\n        require(entryList[_entryID].status == BountyEntryStatus.Pending);\r\n        _;\r\n    }\r\n\r\n    modifier onlyEntryApproved(uint256 _entryID) {\r\n        require(entryList[_entryID].status == BountyEntryStatus.Approved);\r\n        _;\r\n    }\r\n\r\n    modifier bountyStatusOngoing(uint256 _bountyID) {\r\n        require(bountyList[_bountyID].status == BountyStatus.Ongoing);\r\n        _;\r\n    }\r\n\r\n    modifier bountyStatusCompleted(uint256 _bountyID) {\r\n        require(bountyList[_bountyID].status == BountyStatus.Completed);\r\n\r\n        _;\r\n    }\r\n\r\n\tfunction addBounty(string _name, string _description, IERC20 _token, uint256 _payout) public {\r\n\t\trequire(_token.balanceOf(msg.sender) >= _payout);\r\n\t\trequire(_token.allowance(msg.sender, this) >= _payout);\r\n\r\n\t\t_token.safeTransferFrom(msg.sender, this, _payout);\r\n\t\temit TokensDeposited(msg.sender, _payout);\r\n\r\n\t\tBounty storage newBounty = bountyList[bountyCount];\r\n\t\tnewBounty.bountyOwner = msg.sender;\r\n\t\tnewBounty.name = _name;\r\n\t\tnewBounty.description = _description;\r\n\t\tnewBounty.token = _token;\r\n\t\tnewBounty.payout = _payout;\r\n\t\tnewBounty.status = BountyStatus.Ongoing;\r\n\t\tuserBounty[msg.sender].push(bountyCount);\r\n\t\temit BountyAdded(msg.sender, bountyCount);\r\n\r\n\t\tbountyCount++;\r\n\t}\r\n\r\n\tfunction addBountyEntry(uint256 _bountyID, string _documentHash) public validBounty(_bountyID) bountyStatusOngoing(_bountyID) {\r\n\t\trequire(bytes(_documentHash).length > 0);\r\n\r\n\t\tBountyEntry storage newBountyEntry = entryList[entryCount];\r\n\t\tnewBountyEntry.entryUser = msg.sender;\r\n\t\tnewBountyEntry.bountyID = _bountyID;\r\n\t\tnewBountyEntry.documentHash = _documentHash;\r\n\t\tnewBountyEntry.status = BountyEntryStatus.Pending;\r\n\t\tuserEntry[msg.sender].push(entryCount);\r\n\t\temit BountyEntryAdded(msg.sender, entryCount);\r\n\r\n\t\tentryCount++;\r\n\t}\r\n\r\n\tfunction approveBountyEntry(uint256 _entryID) public validEntry(_entryID) bountyStatusOngoing(entryList[_entryID].bountyID) onlyBountyOwner(entryList[_entryID].bountyID) onlyEntryPending(_entryID) {\r\n\t\tBountyEntry storage bountyEntry = entryList[_entryID];\r\n\t\tBounty storage bounty = bountyList[bountyEntry.bountyID];\r\n\r\n\t\tbountyEntry.status = BountyEntryStatus.Approved;\r\n\t\temit BountyEntryApproved(_entryID);\r\n\r\n\t\tbounty.status = BountyStatus.Completed;\r\n\t\temit BountyCompleted(bountyEntry.bountyID);\r\n\t}\r\n\r\n\tfunction withdrawBountyPayout(uint256 _entryID) public validEntry(_entryID) bountyStatusCompleted(entryList[_entryID].bountyID) onlyEntryOwner(_entryID) onlyEntryApproved(_entryID) {\r\n\t\tBountyEntry storage bountyEntry = entryList[_entryID];\r\n\t\tBounty storage bounty = bountyList[bountyEntry.bountyID];\r\n\r\n\t\tbountyEntry.status = BountyEntryStatus.Paid;\r\n\t\t(bounty.token).safeTransfer(bountyEntry.entryUser, bounty.payout);\r\n\t\temit BountyEntryPaid(_entryID);\r\n\t}\r\n\r\n\tfunction getBounty(uint256 _bountyID) public view returns(address, string, string, IERC20, uint256, BountyStatus) {\r\n\t\treturn (bountyList[_bountyID].bountyOwner, bountyList[_bountyID].name, bountyList[_bountyID].description, bountyList[_bountyID].token, bountyList[_bountyID].payout, bountyList[_bountyID].status);\r\n\t}\r\n\r\n\tfunction getBountyByAddress(address _address) public view returns(uint256[]) {\r\n\t\treturn userBounty[_address];\r\n\t}\r\n\r\n\tfunction getEntry(uint256 _entryID) public view returns(address, uint256, string, BountyEntryStatus) {\r\n\t\treturn (entryList[_entryID].entryUser, entryList[_entryID].bountyID, entryList[_entryID].documentHash, entryList[_entryID].status);\r\n\t}\r\n\r\n\tfunction getBountyEntryByAddress(address _address) public view returns(uint256[]) {\r\n\t\treturn userEntry[_address];\r\n\t}\r\n}",
  "sourcePath": "D:\\Solidity\\final-project-xaaane\\contracts\\BountyApp.sol",
  "compiler": {
    "name": "solc",
    "version": "0.4.24+commit.e67f0147.Emscripten.clang"
  },
  "schemaVersion": "2.0.1",
  "updatedAt": "2018-12-14T04:50:32.051Z"
}