{
  "contractName": "BountyApp",
  "abi": [
    {
      "constant": true,
      "inputs": [],
      "name": "entryCount",
      "outputs": [
        {
          "name": "",
          "type": "uint256"
        }
      ],
      "payable": false,
      "stateMutability": "view",
      "type": "function"
    },
    {
      "constant": true,
      "inputs": [],
      "name": "bountyCount",
      "outputs": [
        {
          "name": "",
          "type": "uint256"
        }
      ],
      "payable": false,
      "stateMutability": "view",
      "type": "function"
    },
    {
      "constant": false,
      "inputs": [],
      "name": "renounceOwnership",
      "outputs": [],
      "payable": false,
      "stateMutability": "nonpayable",
      "type": "function"
    },
    {
      "constant": true,
      "inputs": [],
      "name": "owner",
      "outputs": [
        {
          "name": "",
          "type": "address"
        }
      ],
      "payable": false,
      "stateMutability": "view",
      "type": "function"
    },
    {
      "constant": true,
      "inputs": [],
      "name": "isOwner",
      "outputs": [
        {
          "name": "",
          "type": "bool"
        }
      ],
      "payable": false,
      "stateMutability": "view",
      "type": "function"
    },
    {
      "constant": false,
      "inputs": [
        {
          "name": "newOwner",
          "type": "address"
        }
      ],
      "name": "transferOwnership",
      "outputs": [],
      "payable": false,
      "stateMutability": "nonpayable",
      "type": "function"
    },
    {
      "payable": true,
      "stateMutability": "payable",
      "type": "fallback"
    },
    {
      "anonymous": false,
      "inputs": [
        {
          "indexed": true,
          "name": "bountyOwner",
          "type": "address"
        },
        {
          "indexed": false,
          "name": "amount",
          "type": "uint256"
        }
      ],
      "name": "TokensDeposited",
      "type": "event"
    },
    {
      "anonymous": false,
      "inputs": [
        {
          "indexed": true,
          "name": "bountyOwner",
          "type": "address"
        },
        {
          "indexed": false,
          "name": "bountyID",
          "type": "uint256"
        }
      ],
      "name": "BountyAdded",
      "type": "event"
    },
    {
      "anonymous": false,
      "inputs": [
        {
          "indexed": true,
          "name": "entryOwner",
          "type": "address"
        },
        {
          "indexed": false,
          "name": "entryID",
          "type": "uint256"
        }
      ],
      "name": "BountyEntryAdded",
      "type": "event"
    },
    {
      "anonymous": false,
      "inputs": [
        {
          "indexed": false,
          "name": "entryID",
          "type": "uint256"
        }
      ],
      "name": "BountyEntryApproved",
      "type": "event"
    },
    {
      "anonymous": false,
      "inputs": [
        {
          "indexed": false,
          "name": "entryID",
          "type": "uint256"
        }
      ],
      "name": "BountyEntryPaid",
      "type": "event"
    },
    {
      "anonymous": false,
      "inputs": [
        {
          "indexed": false,
          "name": "bountyID",
          "type": "uint256"
        }
      ],
      "name": "BountyAdded",
      "type": "event"
    },
    {
      "anonymous": false,
      "inputs": [
        {
          "indexed": false,
          "name": "bountyID",
          "type": "uint256"
        }
      ],
      "name": "BountyCompleted",
      "type": "event"
    },
    {
      "anonymous": false,
      "inputs": [],
      "name": "EmergencyStop",
      "type": "event"
    },
    {
      "anonymous": false,
      "inputs": [
        {
          "indexed": true,
          "name": "previousOwner",
          "type": "address"
        },
        {
          "indexed": true,
          "name": "newOwner",
          "type": "address"
        }
      ],
      "name": "OwnershipTransferred",
      "type": "event"
    },
    {
      "constant": false,
      "inputs": [
        {
          "name": "_name",
          "type": "string"
        },
        {
          "name": "_description",
          "type": "string"
        },
        {
          "name": "_token",
          "type": "address"
        },
        {
          "name": "_payout",
          "type": "uint256"
        }
      ],
      "name": "addBounty",
      "outputs": [],
      "payable": false,
      "stateMutability": "nonpayable",
      "type": "function"
    },
    {
      "constant": false,
      "inputs": [
        {
          "name": "_bountyID",
          "type": "uint256"
        },
        {
          "name": "_documentHash",
          "type": "string"
        }
      ],
      "name": "addBountyEntry",
      "outputs": [],
      "payable": false,
      "stateMutability": "nonpayable",
      "type": "function"
    },
    {
      "constant": false,
      "inputs": [
        {
          "name": "_entryID",
          "type": "uint256"
        }
      ],
      "name": "approveBountyEntry",
      "outputs": [],
      "payable": false,
      "stateMutability": "nonpayable",
      "type": "function"
    },
    {
      "constant": false,
      "inputs": [
        {
          "name": "_entryID",
          "type": "uint256"
        }
      ],
      "name": "withdrawBountyPayout",
      "outputs": [],
      "payable": false,
      "stateMutability": "nonpayable",
      "type": "function"
    },
    {
      "constant": false,
      "inputs": [],
      "name": "toggleEmergencyStop",
      "outputs": [],
      "payable": false,
      "stateMutability": "nonpayable",
      "type": "function"
    },
    {
      "constant": true,
      "inputs": [
        {
          "name": "_bountyID",
          "type": "uint256"
        }
      ],
      "name": "getBounty",
      "outputs": [
        {
          "name": "",
          "type": "address"
        },
        {
          "name": "",
          "type": "string"
        },
        {
          "name": "",
          "type": "string"
        },
        {
          "name": "",
          "type": "address"
        },
        {
          "name": "",
          "type": "uint256"
        },
        {
          "name": "",
          "type": "uint8"
        },
        {
          "name": "",
          "type": "uint256[]"
        }
      ],
      "payable": false,
      "stateMutability": "view",
      "type": "function"
    },
    {
      "constant": true,
      "inputs": [
        {
          "name": "_address",
          "type": "address"
        }
      ],
      "name": "getBountyByAddress",
      "outputs": [
        {
          "name": "",
          "type": "uint256[]"
        }
      ],
      "payable": false,
      "stateMutability": "view",
      "type": "function"
    },
    {
      "constant": true,
      "inputs": [
        {
          "name": "_entryID",
          "type": "uint256"
        }
      ],
      "name": "getEntry",
      "outputs": [
        {
          "name": "",
          "type": "address"
        },
        {
          "name": "",
          "type": "uint256"
        },
        {
          "name": "",
          "type": "string"
        },
        {
          "name": "",
          "type": "uint8"
        }
      ],
      "payable": false,
      "stateMutability": "view",
      "type": "function"
    },
    {
      "constant": true,
      "inputs": [
        {
          "name": "_address",
          "type": "address"
        }
      ],
      "name": "getBountyEntryByAddress",
      "outputs": [
        {
          "name": "",
          "type": "uint256[]"
        }
      ],
      "payable": false,
      "stateMutability": "view",
      "type": "function"
    }
  ],
  "bytecode": "0x608060405260008060146101000a81548160ff021916908315150217905550336000806101000a81548173ffffffffffffffffffffffffffffffffffffffff021916908373ffffffffffffffffffffffffffffffffffffffff1602179055506000809054906101000a900473ffffffffffffffffffffffffffffffffffffffff1673ffffffffffffffffffffffffffffffffffffffff16600073ffffffffffffffffffffffffffffffffffffffff167f8be0079c531659141344cd1fd0a4f28419497f9722a3daafe3b4186f6b6457e060405160405180910390a3611f85806100e96000396000f3006080604052600436106100db576000357c0100000000000000000000000000000000000000000000000000000000900463ffffffff1680630cbb0f83146100e05780633e362c961461010b5780634b7aac9414610136578063715018a61461014d5780637d34d87c1461016457806381059620146101915780638508a24c1461022957806388df391c146103025780638da5cb5b1461032f5780638f32d59b14610386578063bae78d7b146103b5578063d56b022f146104aa578063dc46bd3c14610542578063ee8c4bbf146105b5578063f2fde38b14610791575b600080fd5b3480156100ec57600080fd5b506100f56107d4565b6040518082815260200191505060405180910390f35b34801561011757600080fd5b506101206107da565b6040518082815260200191505060405180910390f35b34801561014257600080fd5b5061014b6107e0565b005b34801561015957600080fd5b5061016261084b565b005b34801561017057600080fd5b5061018f6004803603810190808035906020019092919050505061091d565b005b34801561019d57600080fd5b506101d2600480360381019080803573ffffffffffffffffffffffffffffffffffffffff169060200190929190505050610bd2565b6040518080602001828103825283818151815260200191508051906020019060200280838360005b838110156102155780820151818401526020810190506101fa565b505050509050019250505060405180910390f35b34801561023557600080fd5b50610300600480360381019080803590602001908201803590602001908080601f0160208091040260200160405190810160405280939291908181526020018383808284378201915050505050509192919290803590602001908201803590602001908080601f0160208091040260200160405190810160405280939291908181526020018383808284378201915050505050509192919290803573ffffffffffffffffffffffffffffffffffffffff16906020019092919080359060200190929190505050610c69565b005b34801561030e57600080fd5b5061032d600480360381019080803590602001909291905050506110cf565b005b34801561033b57600080fd5b50610344611385565b604051808273ffffffffffffffffffffffffffffffffffffffff1673ffffffffffffffffffffffffffffffffffffffff16815260200191505060405180910390f35b34801561039257600080fd5b5061039b6113ae565b604051808215151515815260200191505060405180910390f35b3480156103c157600080fd5b506103e060048036038101908080359060200190929190505050611405565b604051808573ffffffffffffffffffffffffffffffffffffffff1673ffffffffffffffffffffffffffffffffffffffff1681526020018481526020018060200183600281111561042c57fe5b60ff168152602001828103825284818151815260200191508051906020019080838360005b8381101561046c578082015181840152602081019050610451565b50505050905090810190601f1680156104995780820380516001836020036101000a031916815260200191505b509550505050505060405180910390f35b3480156104b657600080fd5b506104eb600480360381019080803573ffffffffffffffffffffffffffffffffffffffff16906020019092919050505061153f565b6040518080602001828103825283818151815260200191508051906020019060200280838360005b8381101561052e578082015181840152602081019050610513565b505050509050019250505060405180910390f35b34801561054e57600080fd5b506105b360048036038101908080359060200190929190803590602001908201803590602001908080601f01602080910402602001604051908101604052809392919081815260200183838082843782019150505050505091929192905050506115d6565b005b3480156105c157600080fd5b506105e0600480360381019080803590602001909291905050506118f0565b604051808873ffffffffffffffffffffffffffffffffffffffff1673ffffffffffffffffffffffffffffffffffffffff16815260200180602001806020018773ffffffffffffffffffffffffffffffffffffffff1673ffffffffffffffffffffffffffffffffffffffff16815260200186815260200185600181111561066257fe5b60ff1681526020018060200184810384528a818151815260200191508051906020019080838360005b838110156106a657808201518184015260208101905061068b565b50505050905090810190601f1680156106d35780820380516001836020036101000a031916815260200191505b50848103835289818151815260200191508051906020019080838360005b8381101561070c5780820151818401526020810190506106f1565b50505050905090810190601f1680156107395780820380516001836020036101000a031916815260200191505b50848103825285818151815260200191508051906020019060200280838360005b8381101561077557808201518184015260208101905061075a565b505050509050019a505050505050505050505060405180910390f35b34801561079d57600080fd5b506107d2600480360381019080803573ffffffffffffffffffffffffffffffffffffffff169060200190929190505050611b8a565b005b60025481565b60015481565b6107e86113ae565b15156107f357600080fd5b600060149054906101000a900460ff1615600060146101000a81548160ff0219169083151502179055507f4e97bcfc80ae353daee1a1990d5b388eef167d3e197ebf5243cc4d43b4125c0960405160405180910390a1565b6108536113ae565b151561085e57600080fd5b600073ffffffffffffffffffffffffffffffffffffffff166000809054906101000a900473ffffffffffffffffffffffffffffffffffffffff1673ffffffffffffffffffffffffffffffffffffffff167f8be0079c531659141344cd1fd0a4f28419497f9722a3daafe3b4186f6b6457e060405160405180910390a360008060006101000a81548173ffffffffffffffffffffffffffffffffffffffff021916908373ffffffffffffffffffffffffffffffffffffffff160217905550565b60008082600073ffffffffffffffffffffffffffffffffffffffff166005600083815260200190815260200160002060000160009054906101000a900473ffffffffffffffffffffffffffffffffffffffff1673ffffffffffffffffffffffffffffffffffffffff161415151561099357600080fd5b60056000858152602001908152602001600020600101546001808111156109b657fe5b6003600083815260200190815260200160002060050160009054906101000a900460ff1660018111156109e557fe5b1415156109f157600080fd5b846005600082815260200190815260200160002060000160009054906101000a900473ffffffffffffffffffffffffffffffffffffffff1673ffffffffffffffffffffffffffffffffffffffff163373ffffffffffffffffffffffffffffffffffffffff16141515610a6257600080fd5b8560016002811115610a7057fe5b6005600083815260200190815260200160002060030160009054906101000a900460ff166002811115610a9f57fe5b141515610aab57600080fd5b600060149054906101000a900460ff16151515610ac757600080fd5b6005600088815260200190815260200160002095506003600087600101548152602001908152602001600020945060028660030160006101000a81548160ff02191690836002811115610b1657fe5b0217905550610b928660000160009054906101000a900473ffffffffffffffffffffffffffffffffffffffff1686600401548760030160009054906101000a900473ffffffffffffffffffffffffffffffffffffffff1673ffffffffffffffffffffffffffffffffffffffff16611ba99092919063ffffffff16565b7f0f8cdfc2f91be5c63e15dde45180d86c6b36570012794792476e1aa440dd0f41876040518082815260200191505060405180910390a150505050505050565b6060600460008373ffffffffffffffffffffffffffffffffffffffff1673ffffffffffffffffffffffffffffffffffffffff168152602001908152602001600020805480602002602001604051908101604052809291908181526020018280548015610c5d57602002820191906000526020600020905b815481526020019060010190808311610c49575b50505050509050919050565b60008060149054906101000a900460ff16151515610c8657600080fd5b818373ffffffffffffffffffffffffffffffffffffffff166370a08231336040518263ffffffff167c0100000000000000000000000000000000000000000000000000000000028152600401808273ffffffffffffffffffffffffffffffffffffffff1673ffffffffffffffffffffffffffffffffffffffff168152602001915050602060405180830381600087803b158015610d2257600080fd5b505af1158015610d36573d6000803e3d6000fd5b505050506040513d6020811015610d4c57600080fd5b810190808051906020019092919050505010151515610d6a57600080fd5b818373ffffffffffffffffffffffffffffffffffffffff1663dd62ed3e33306040518363ffffffff167c0100000000000000000000000000000000000000000000000000000000028152600401808373ffffffffffffffffffffffffffffffffffffffff1673ffffffffffffffffffffffffffffffffffffffff1681526020018273ffffffffffffffffffffffffffffffffffffffff1673ffffffffffffffffffffffffffffffffffffffff16815260200192505050602060405180830381600087803b158015610e3a57600080fd5b505af1158015610e4e573d6000803e3d6000fd5b505050506040513d6020811015610e6457600080fd5b810190808051906020019092919050505010151515610e8257600080fd5b610eaf3330848673ffffffffffffffffffffffffffffffffffffffff16611c97909392919063ffffffff16565b3373ffffffffffffffffffffffffffffffffffffffff167f59062170a285eb80e8c6b8ced60428442a51910635005233fc4ce084a475845e836040518082815260200191505060405180910390a26003600060015481526020019081526020016000209050338160000160006101000a81548173ffffffffffffffffffffffffffffffffffffffff021916908373ffffffffffffffffffffffffffffffffffffffff16021790555084816001019080519060200190610f6f929190611eb4565b5083816002019080519060200190610f88929190611eb4565b50828160030160006101000a81548173ffffffffffffffffffffffffffffffffffffffff021916908373ffffffffffffffffffffffffffffffffffffffff16021790555081816004018190555060008160050160006101000a81548160ff02191690836001811115610ff657fe5b0217905550600460003373ffffffffffffffffffffffffffffffffffffffff1673ffffffffffffffffffffffffffffffffffffffff16815260200190815260200160002060015490806001815401808255809150509060018203906000526020600020016000909192909190915055503373ffffffffffffffffffffffffffffffffffffffff167fbb7d80264858cda07e4437c9626c74dc728d62f1369a77dcbab476527dff19836001546040518082815260200191505060405180910390a26001600081548092919060010191905055505050505050565b60008082600073ffffffffffffffffffffffffffffffffffffffff166005600083815260200190815260200160002060000160009054906101000a900473ffffffffffffffffffffffffffffffffffffffff1673ffffffffffffffffffffffffffffffffffffffff161415151561114557600080fd5b60056000858152602001908152602001600020600101546000600181111561116957fe5b6003600083815260200190815260200160002060050160009054906101000a900460ff16600181111561119857fe5b1415156111a457600080fd5b60056000868152602001908152602001600020600101546003600082815260200190815260200160002060000160009054906101000a900473ffffffffffffffffffffffffffffffffffffffff1673ffffffffffffffffffffffffffffffffffffffff163373ffffffffffffffffffffffffffffffffffffffff1614151561122b57600080fd5b856000600281111561123957fe5b6005600083815260200190815260200160002060030160009054906101000a900460ff16600281111561126857fe5b14151561127457600080fd5b600060149054906101000a900460ff1615151561129057600080fd5b6005600088815260200190815260200160002095506003600087600101548152602001908152602001600020945060018660030160006101000a81548160ff021916908360028111156112df57fe5b02179055507f096b8f5fba4f55634797a43ff22978f8a174f72d27e881eecbb057c5907bdb45876040518082815260200191505060405180910390a160018560050160006101000a81548160ff0219169083600181111561133c57fe5b02179055507f687045981c43db01605c41aa9dbf9296e20e6848624353e83979327e96434ccc86600101546040518082815260200191505060405180910390a150505050505050565b60008060009054906101000a900473ffffffffffffffffffffffffffffffffffffffff16905090565b60008060009054906101000a900473ffffffffffffffffffffffffffffffffffffffff1673ffffffffffffffffffffffffffffffffffffffff163373ffffffffffffffffffffffffffffffffffffffff1614905090565b600080606060006005600086815260200190815260200160002060000160009054906101000a900473ffffffffffffffffffffffffffffffffffffffff166005600087815260200190815260200160002060010154600560008881526020019081526020016000206002016005600089815260200190815260200160002060030160009054906101000a900460ff16818054600181600116156101000203166002900480601f0160208091040260200160405190810160405280929190818152602001828054600181600116156101000203166002900480156115295780601f106114fe57610100808354040283529160200191611529565b820191906000526020600020905b81548152906001019060200180831161150c57829003601f168201915b5050505050915093509350935093509193509193565b6060600660008373ffffffffffffffffffffffffffffffffffffffff1673ffffffffffffffffffffffffffffffffffffffff1681526020019081526020016000208054806020026020016040519081016040528092919081815260200182805480156115ca57602002820191906000526020600020905b8154815260200190600101908083116115b6575b50505050509050919050565b60008083600073ffffffffffffffffffffffffffffffffffffffff166003600083815260200190815260200160002060000160009054906101000a900473ffffffffffffffffffffffffffffffffffffffff1673ffffffffffffffffffffffffffffffffffffffff161415151561164c57600080fd5b846000600181111561165a57fe5b6003600083815260200190815260200160002060050160009054906101000a900460ff16600181111561168957fe5b14151561169557600080fd5b856003600082815260200190815260200160002060000160009054906101000a900473ffffffffffffffffffffffffffffffffffffffff1673ffffffffffffffffffffffffffffffffffffffff163373ffffffffffffffffffffffffffffffffffffffff161415151561170757600080fd5b600060149054906101000a900460ff1615151561172357600080fd5b6000865111151561173357600080fd5b6005600060025481526020019081526020016000209450338560000160006101000a81548173ffffffffffffffffffffffffffffffffffffffff021916908373ffffffffffffffffffffffffffffffffffffffff160217905550868560010181905550858560020190805190602001906117ae929190611eb4565b5060008560030160006101000a81548160ff021916908360028111156117d057fe5b0217905550600660003373ffffffffffffffffffffffffffffffffffffffff1673ffffffffffffffffffffffffffffffffffffffff16815260200190815260200160002060025490806001815401808255809150509060018203906000526020600020016000909192909190915055506003600088815260200190815260200160002093508360060160025490806001815401808255809150509060018203906000526020600020016000909192909190915055503373ffffffffffffffffffffffffffffffffffffffff167f220aa9936ee935d35192fcc6795a27b1704afc3be0a3eda7512996ba08b24a286002546040518082815260200191505060405180910390a260026000815480929190600101919050555050505050505050565b6000606080600080600060606003600089815260200190815260200160002060000160009054906101000a900473ffffffffffffffffffffffffffffffffffffffff16600360008a8152602001908152602001600020600101600360008b8152602001908152602001600020600201600360008c815260200190815260200160002060030160009054906101000a900473ffffffffffffffffffffffffffffffffffffffff16600360008d815260200190815260200160002060040154600360008e815260200190815260200160002060050160009054906101000a900460ff16600360008f8152602001908152602001600020600601858054600181600116156101000203166002900480601f016020809104026020016040519081016040528092919081815260200182805460018160011615610100020316600290048015611a7c5780601f10611a5157610100808354040283529160200191611a7c565b820191906000526020600020905b815481529060010190602001808311611a5f57829003601f168201915b50505050509550848054600181600116156101000203166002900480601f016020809104026020016040519081016040528092919081815260200182805460018160011615610100020316600290048015611b185780601f10611aed57610100808354040283529160200191611b18565b820191906000526020600020905b815481529060010190602001808311611afb57829003601f168201915b5050505050945080805480602002602001604051908101604052809291908181526020018280548015611b6a57602002820191906000526020600020905b815481526020019060010190808311611b56575b505050505090509650965096509650965096509650919395979092949650565b611b926113ae565b1515611b9d57600080fd5b611ba681611dba565b50565b8273ffffffffffffffffffffffffffffffffffffffff1663a9059cbb83836040518363ffffffff167c0100000000000000000000000000000000000000000000000000000000028152600401808373ffffffffffffffffffffffffffffffffffffffff1673ffffffffffffffffffffffffffffffffffffffff16815260200182815260200192505050602060405180830381600087803b158015611c4c57600080fd5b505af1158015611c60573d6000803e3d6000fd5b505050506040513d6020811015611c7657600080fd5b81019080805190602001909291905050501515611c9257600080fd5b505050565b8373ffffffffffffffffffffffffffffffffffffffff166323b872dd8484846040518463ffffffff167c0100000000000000000000000000000000000000000000000000000000028152600401808473ffffffffffffffffffffffffffffffffffffffff1673ffffffffffffffffffffffffffffffffffffffff1681526020018373ffffffffffffffffffffffffffffffffffffffff1673ffffffffffffffffffffffffffffffffffffffff1681526020018281526020019350505050602060405180830381600087803b158015611d6e57600080fd5b505af1158015611d82573d6000803e3d6000fd5b505050506040513d6020811015611d9857600080fd5b81019080805190602001909291905050501515611db457600080fd5b50505050565b600073ffffffffffffffffffffffffffffffffffffffff168173ffffffffffffffffffffffffffffffffffffffff1614151515611df657600080fd5b8073ffffffffffffffffffffffffffffffffffffffff166000809054906101000a900473ffffffffffffffffffffffffffffffffffffffff1673ffffffffffffffffffffffffffffffffffffffff167f8be0079c531659141344cd1fd0a4f28419497f9722a3daafe3b4186f6b6457e060405160405180910390a3806000806101000a81548173ffffffffffffffffffffffffffffffffffffffff021916908373ffffffffffffffffffffffffffffffffffffffff16021790555050565b828054600181600116156101000203166002900490600052602060002090601f016020900481019282601f10611ef557805160ff1916838001178555611f23565b82800160010185558215611f23579182015b82811115611f22578251825591602001919060010190611f07565b5b509050611f309190611f34565b5090565b611f5691905b80821115611f52576000816000905550600101611f3a565b5090565b905600a165627a7a72305820abfefebb37728f3745f2c83e5684dc18339af1b90825dbd8f2b3df25d24f83410029",
  "source": "pragma solidity ^0.4.24;\r\n\r\nimport \"./Ownable.sol\";\r\nimport \"./SafeMath.sol\";\r\nimport \"./IERC20.sol\";\r\nimport \"./SafeERC20.sol\";\r\n\r\n/** @title Bounty App. */\r\ncontract BountyApp is Ownable {\r\n\tusing SafeMath for uint256;\r\n\tusing SafeERC20 for IERC20;\r\n\r\n\tbool private stopped = false;\r\n\tuint256 public bountyCount;\r\n\tuint256 public entryCount;\r\n\tmapping (uint256 => Bounty) private bountyList;\r\n\tmapping (address => uint256[]) private userBounty;\r\n\tmapping (uint256 => BountyEntry) private entryList;\r\n\tmapping (address => uint256[]) private userEntry; \r\n\r\n\tenum BountyStatus { Ongoing, Completed }\r\n\tenum BountyEntryStatus { Pending, Approved, Paid }\r\n\r\n\tstruct Bounty {\r\n\t\taddress bountyOwner;\r\n\t\tstring name;\r\n\t\tstring description;\r\n\t\tIERC20 token;\r\n\t\tuint256 payout;\r\n\t\tBountyStatus status;\r\n\t\tuint256[] entries;\r\n\t}\r\n\r\n\tstruct BountyEntry {\r\n\t\taddress entryUser;\r\n\t\tuint256 bountyID;\r\n\t\tstring documentHash;\r\n\t\tBountyEntryStatus status;\r\n\t}\r\n\r\n\tevent TokensDeposited(address indexed bountyOwner, uint256 amount);\r\n\tevent BountyAdded(address indexed bountyOwner, uint256 bountyID);\r\n\tevent BountyEntryAdded(address indexed entryOwner, uint256 entryID);\r\n\tevent BountyEntryApproved(uint256 entryID);\r\n\tevent BountyEntryPaid(uint256 entryID);\r\n\tevent BountyAdded(uint256 bountyID);\r\n\tevent BountyCompleted(uint256 bountyID);\r\n\tevent EmergencyStop();\r\n\r\n\t/** @dev Fallback function set to revert.\r\n      */\r\n\tfunction() public payable {\r\n\t\trevert();\r\n\t}\r\n\r\n\t/** @dev Throws if ID of the bounty is invalid\r\n      * @param _bountyID The ID of the bounty.\r\n      */\r\n\tmodifier validBounty(uint256 _bountyID) {\r\n        require(bountyList[_bountyID].bountyOwner != address(0));\r\n        _;\r\n    }\r\n\r\n    /** @dev Throws if ID of the bounty entry is invalid\r\n      * @param _entryID The ID of the bounty entry.\r\n      */\r\n    modifier validEntry(uint256 _entryID) {\r\n        require(entryList[_entryID].entryUser != address(0));\r\n        _;\r\n    }\r\n\r\n    /** @dev Throws if called by any account other than the bounty owner.\r\n      * @param _bountyID The ID of the bounty.\r\n      */\r\n\tmodifier onlyBountyOwner(uint256 _bountyID) {\r\n        require(msg.sender == bountyList[_bountyID].bountyOwner);\r\n        _;\r\n    }\r\n\r\n    /** @dev Throws if called by the bounty owner.\r\n      * @param _bountyID The ID of the bounty.\r\n      */\r\n    modifier notBountyOwner(uint256 _bountyID) {\r\n        require(msg.sender != bountyList[_bountyID].bountyOwner);\r\n        _;\r\n    }\r\n\r\n    /** @dev Throws if called by any account other than the bounty entry owner.\r\n      * @param _entryID The ID of the bounty entry.\r\n      */\r\n    modifier onlyEntryOwner(uint256 _entryID) {\r\n        require(msg.sender == entryList[_entryID].entryUser);\r\n        _;\r\n    }\r\n\r\n    /** @dev Throws if bounty entry status is not pending.\r\n      * @param _entryID The ID of the bounty entry.\r\n      */\r\n    modifier onlyEntryPending( uint256 _entryID) {\r\n        require(entryList[_entryID].status == BountyEntryStatus.Pending);\r\n        _;\r\n    }\r\n\r\n    /** @dev Throws if bounty entry status is not approved.\r\n      * @param _entryID The ID of the bounty entry.\r\n      */\r\n    modifier onlyEntryApproved(uint256 _entryID) {\r\n        require(entryList[_entryID].status == BountyEntryStatus.Approved);\r\n        _;\r\n    }\r\n\r\n    /** @dev Throws if bounty status is not ongoing.\r\n      * @param _bountyID The ID of the bounty.\r\n      */\r\n    modifier bountyStatusOngoing(uint256 _bountyID) {\r\n        require(bountyList[_bountyID].status == BountyStatus.Ongoing);\r\n        _;\r\n    }\r\n\r\n    /** @dev Throws if bounty status is not completed.\r\n      * @param _bountyID The ID of the bounty.\r\n      */\r\n    modifier bountyStatusCompleted(uint256 _bountyID) {\r\n        require(bountyList[_bountyID].status == BountyStatus.Completed);\r\n\r\n        _;\r\n    }\r\n\r\n    /** @dev Throws if emergency stop is actived\r\n      */\r\n    modifier stopInEmergency() { \r\n    \trequire(!stopped);\r\n    \t_; \r\n    }\r\n\r\n    /** @dev Throws if emergency stop is not actived\r\n      */\r\n\tmodifier onlyInEmergency() {\r\n\t\trequire(stopped);\r\n\t\t_; \r\n\t}\r\n\r\n\r\n\t/** @dev Adds a new bounty\r\n      * @param _name The name of the bounty.\r\n      * @param _description The description of the bounty.\r\n      * @param _token The address of the token used as the reward for the bounty.\r\n      * @param _payout The payout of the bounty.\r\n      */\r\n\tfunction addBounty(string _name, string _description, IERC20 _token, uint256 _payout) public stopInEmergency {\r\n\t\trequire(_token.balanceOf(msg.sender) >= _payout);\r\n\t\trequire(_token.allowance(msg.sender, this) >= _payout);\r\n\r\n\t\t_token.safeTransferFrom(msg.sender, this, _payout);\r\n\t\temit TokensDeposited(msg.sender, _payout);\r\n\r\n\t\tBounty storage newBounty = bountyList[bountyCount];\r\n\t\tnewBounty.bountyOwner = msg.sender;\r\n\t\tnewBounty.name = _name;\r\n\t\tnewBounty.description = _description;\r\n\t\tnewBounty.token = _token;\r\n\t\tnewBounty.payout = _payout;\r\n\t\tnewBounty.status = BountyStatus.Ongoing;\r\n\t\tuserBounty[msg.sender].push(bountyCount);\r\n\t\temit BountyAdded(msg.sender, bountyCount);\r\n\r\n\t\tbountyCount++;\r\n\t}\r\n\r\n\t/** @dev Adds a new bounty entry\r\n      * @param _bountyID The ID of the bounty.\r\n      * @param _documentHash The IPFS hash of the document.\r\n      */\r\n\tfunction addBountyEntry(uint256 _bountyID, string _documentHash) public validBounty(_bountyID) bountyStatusOngoing(_bountyID) notBountyOwner(_bountyID) stopInEmergency{\r\n\t\trequire(bytes(_documentHash).length > 0);\r\n\r\n\t\tBountyEntry storage newBountyEntry = entryList[entryCount];\r\n\t\tnewBountyEntry.entryUser = msg.sender;\r\n\t\tnewBountyEntry.bountyID = _bountyID;\r\n\t\tnewBountyEntry.documentHash = _documentHash;\r\n\t\tnewBountyEntry.status = BountyEntryStatus.Pending;\r\n\t\tuserEntry[msg.sender].push(entryCount);\r\n\r\n\t\tBounty storage bounty = bountyList[_bountyID];\r\n\t\tbounty.entries.push(entryCount);\r\n\r\n\t\temit BountyEntryAdded(msg.sender, entryCount);\r\n\r\n\t\tentryCount++;\r\n\t}\r\n\r\n\t/** @dev Approves a bounty entry\r\n      * @param _entryID The ID of the bounty entry.\r\n      */\r\n\tfunction approveBountyEntry(uint256 _entryID) public validEntry(_entryID) bountyStatusOngoing(entryList[_entryID].bountyID) onlyBountyOwner(entryList[_entryID].bountyID) onlyEntryPending(_entryID) stopInEmergency {\r\n\t\tBountyEntry storage bountyEntry = entryList[_entryID];\r\n\t\tBounty storage bounty = bountyList[bountyEntry.bountyID];\r\n\r\n\t\tbountyEntry.status = BountyEntryStatus.Approved;\r\n\t\temit BountyEntryApproved(_entryID);\r\n\r\n\t\tbounty.status = BountyStatus.Completed;\r\n\t\temit BountyCompleted(bountyEntry.bountyID);\r\n\t}\r\n\r\n\t/** @dev Withdrawal of bounty payout\r\n      * @param _entryID The ID of the bounty entry.\r\n      */\r\n\tfunction withdrawBountyPayout(uint256 _entryID) public validEntry(_entryID) bountyStatusCompleted(entryList[_entryID].bountyID) onlyEntryOwner(_entryID) onlyEntryApproved(_entryID) stopInEmergency {\r\n\t\tBountyEntry storage bountyEntry = entryList[_entryID];\r\n\t\tBounty storage bounty = bountyList[bountyEntry.bountyID];\r\n\r\n\t\tbountyEntry.status = BountyEntryStatus.Paid;\r\n\t\t(bounty.token).safeTransfer(bountyEntry.entryUser, bounty.payout);\r\n\t\temit BountyEntryPaid(_entryID);\r\n\t}\r\n\r\n\t/** @dev Circuit breaker to stop contract functions\r\n      */\r\n\tfunction toggleEmergencyStop() onlyOwner public {\r\n\t    stopped = !stopped;\r\n\t    emit EmergencyStop();\r\n\t}\r\n\r\n\t/** @dev Returns information of a bounty.\r\n      * @param _bountyID The ID of the bounty.\r\n      * @return An address specifying the bounty owner.\r\n      * @return A string specifying the name of the bounty.\r\n      * @return A string specifying the description of the bounty.\r\n      * @return An address specifying the token used as the reward for the bounty.\r\n      * @return A uint256 specifying the payout of the bounty.\r\n      * @return A uint specifying the status of the bounty.\r\n      * @return An array of uint256 specifying the entries of the bounty.\r\n      */\r\n\tfunction getBounty(uint256 _bountyID) public view returns(address, string, string, IERC20, uint256, BountyStatus, uint256[]) {\r\n\t\treturn (bountyList[_bountyID].bountyOwner, bountyList[_bountyID].name, bountyList[_bountyID].description, bountyList[_bountyID].token, bountyList[_bountyID].payout, bountyList[_bountyID].status, bountyList[_bountyID].entries);\r\n\t}\r\n\r\n\t/** @dev Returns bounties created by an address.\r\n      * @param _address The address to search for.\r\n      * @return An array of uint256 specifying the bounties created by the address.\r\n      */\r\n\tfunction getBountyByAddress(address _address) public view returns(uint256[]) {\r\n\t\treturn userBounty[_address];\r\n\t}\r\n\r\n\t/** @dev Returns information of a bounty entry.\r\n      * @param _entryID The ID of the bounty entry.\r\n      * @return An address specifying the bounty entry owner.\r\n      * @return A uint256 specifying the ID of the bounty that the bounty entry belongs to.\r\n      * @return A string specifying IPFS hash of the bounty entry document.\r\n      * @return A uint specifying the status of the bounty entry.\r\n      */\r\n\tfunction getEntry(uint256 _entryID) public view returns(address, uint256, string, BountyEntryStatus) {\r\n\t\treturn (entryList[_entryID].entryUser, entryList[_entryID].bountyID, entryList[_entryID].documentHash, entryList[_entryID].status);\r\n\t}\r\n\r\n\t/** @dev Returns bounty entries by an address.\r\n      * @param _address The address to search for.\r\n      * @return An array of uint256 specifying the bounty entries by the address.\r\n      */\r\n\tfunction getBountyEntryByAddress(address _address) public view returns(uint256[]) {\r\n\t\treturn userEntry[_address];\r\n\t}\r\n}",
  "sourcePath": "D:\\Solidity\\final-project-xaaane\\contracts\\BountyApp.sol",
  "compiler": {
    "name": "solc",
    "version": "0.4.24+commit.e67f0147.Emscripten.clang"
  },
  "schemaVersion": "2.0.1",
  "updatedAt": "2019-01-22T03:53:10.211Z"
}